:1000000016EF0AF012001200046ED8CF05F0E0CF10
:1000100006F00001E9CF0CF0EACF07F0E1CF08F0DD
:10002000E2CF09F0D9CF0AF0DACF0BF0F3CF12F01C
:10003000F4CF13F0FACF14F0FBCF15F000C00EF0A0
:1000400001C00FF002C010F003C011F0F2AA2CEFB3
:1000500000F0F2B405EF01F09DA232EF00F09EB285
:1000600076EF00F0F2A638EF00F0F2B059EF03F0AF
:100070000EC000F00FC001F010C002F011C003F07C
:100080000CC0E9FF07C0EAFF078E08C0E1FF09C006
:10009000E2FF0AC0D9FF0BC0DAFF12C0F3FF13C0A2
:1000A000F4FF14C0FAFF15C0FBFF045006C0E0FFC8
:1000B00005C0D8FF1000F2CF0DF0F29EF76AD40F02
:1000C000F66E000EF722000EF86E0900F5500DBE18
:1000D000F28E1200A0A001A05001A0A001A08201F8
:1000E00050A00100000182A001A0A0012F50305CAF
:1000F00003E294968B8602D094968B96302A9E9239
:1001000038EF00F0616B928080B001D061859282FF
:1001100080B201D06183928480B401D0618161C0DA
:1001200001F010EF01F06751016A665D03E266C0FD
:1001300000F00CD0006A080E686F66370036675111
:10014000005CD8B0006E0136682FF7D7C6EF00F01C
:10015000645306E06451050803E06451070802E1B6
:10016000000E01D0010E016EE3EF00F0036A29508A
:10017000260FE96E000E0320EA6E61C0EFFF010E4C
:100180002924656F666F030E676FCDD700C029F015
:100190006281010E636F635102080EE3036A6351CB
:1001A000260FE96E000E0320EA6E2650EF5C02E097
:1001B000629102D0632BEFD762A109D026C02AF04A
:1001C0002AC064F0C5D7015202E02AC02BF015EF17
:1001D00001F0645303E093948A8402D093948A9448
:1001E00012002A50016E1200645303E093968A862F
:1001F00002D093968A9612002E74000E2EB4010E31
:10020000616F646FF1DF3BEF01F0F60ED76E3C0ECD
:10021000D66E020E1F26000E20222122222272D725
:1002200001C05EF05EC061F0A1D72EAA06D01DA667
:1002300004D0010E646FCDDF02D0646BCADF1DA64F
:100240000DD01DB40BD0CDDF01C05FF05FA203D095
:10025000646BCADF03D0010E646FC6DF232AD8B4F3
:10026000242A245203E123507C0818E2246A236ADA
:100270001DA414D0C1D7252A255005080FE21D94CE
:10028000256A1DA60BD0ADDF01C060F060A303D0CE
:10029000646BAADF03D0010E646FA6DFF29438EF1F
:1002A00000F0EA6A650EE96EEF500DE0060E016E91
:1002B000006A002EFED7012EFBD77B0E006E002EAB
:1002C000FED7EF2EF3D71200672D05D0949C8B9CA0
:1002D000949E8B9E04D0949C8B8C949E8B8E696B89
:1002E00065C068F06837693768376937FC0E68178A
:1002F0006933683369336833693368C0BEFF693373
:100300006931300B006EBD50CF0B0010BD6E66C062
:100310002FF01200656B666B010E676FD5DF120060
:10032000F9DF12001200F6DF120064C01CF0F25078
:10033000006EF29EAA6AA96A64C0A8FFA69CA69E47
:10034000A6840F01550EA76EAA0EA76EA682A6B2AE
:10035000FED7A6940050F212F2CF00F0F29EAA6AE5
:10036000010EA96E18C0A8FFA69CA69EA684550ED5
:10037000A76EAA0EA76EA682A6B2FED7A6940050BC
:10038000F212F2CF00F0F29EAA6A020EA96E1BC012
:10039000A8FFA69CA69EA684550EA76EAA0EA76EC1
:1003A000A682A6B2FED7A6940050F2121DA202D0D9
:1003B000010E01D0000E0001656FF250006EF29E3A
:1003C000AA6A030EA96E65C0A8FFA69CA69EA68475
:1003D0000F01550EA76EAA0EA76EA682A6B2FED773
:1003E000A6940050F212F2CF00F0F29EAA6A040E18
:1003F000A96E31C0A8FFA69CA69EA684550EA76E26
:10040000AA0EA76EA682A6B2FED7A6940050F2123C
:10041000F2CF00F0F29EAA6A050EA96E32C0A8FFC4
:10042000A69CA69EA684550EA76EAA0EA76EA682AF
:10043000A6B2FED7A6940050F212000112006ADFA5
:10044000640E656F2EDF020E646F6FDF1200120004
:1004500061DF1200010E646FBCDE120012005ADF71
:100460001D901200939C8A8C1200FCDF376A1200E8
:10047000500E656F666F010E676F26DF120094984D
:100480008B88120047DFFBDF120064C065F064C098
:1004900066F0676B19DF12003D6A3C6A3F6A3E6A8C
:1004A000500E646FF2DF1200666B64C065F0653752
:1004B000663765376637FC0E651766336533663316
:1004C0006533663365C0BEFF66336631300B006E40
:1004D000BD50CF0B0010BD6E64C02FF0949C8B9C60
:1004E000949E8B8E1200666B64C065F0653766372C
:1004F00065376637FC0E65176633653366336533DB
:10050000663365C0BEFF66336631300B006EBD508A
:10051000CF0B0010BD6E64C02FF0949C8B8C949E0A
:100520008B9E120022C03BF021C03AF020C039F06F
:100530001FC038F01B2C04D0A00E646FB5DF06D0AE
:100540001B50020803E1A00E646FCDDF120064C0EF
:1005500065F064C066F0010E676FB6DE1200949A13
:100560008B8A080E646FFA0E656F9BDE642FFBD7D3
:10057000949A8B9A94988B98646B36DE1200500E86
:10058000646FE5DF020E646F960E656F8ADE642F7E
:10059000FBD7C0DEE4DF1200500E646F76DF12007E
:1005A000B9DE1200B7DE12001850F60F16E20A0F7D
:1005B00013EF03F027DD11D026DD0FD0B1DE0DD013
:1005C000B1DE0BD0B0DE09D03ADF07D040DF05D076
:1005D0003FDF03D03FDF01D041DF18C019F063C017
:1005E00018F022C036F021C035F020C034F01FC012
:1005F00033F06351F60F16E20A0F36EF03F02FDFE8
:1006000011D033DF0FD034DF0DD03CDF0BD044DF0F
:1006100009D088DF07D0B3DF05D0BEDF03D0C0DF4D
:1006200001D0C0DF120007AE03D0F2CF0DF0F29E72
:10063000E824F76AF736590FF66E060EF722000E19
:10064000F86EFB6E0A00F550FA6E0800F55007AE22
:1006500002D00DBEF28EF96EB405B805BC05C0051A
:10066000C405C805CC05D005D405D80507AE03D010
:10067000F2CF0DF0F29EE824F76AF7369F0FF66E80
:10068000060EF722000EF86EFB6E0A00F550FA6EA9
:100690000800F55007AE02D00DBEF28EF96EFE05D1
:1006A000020606060A060E06120616061A061E069A
:1006B0002206936881CF5EF0938E81BE19D0320EF0
:1006C000656FEFDD938E81BE13D01D761DB609D008
:1006D0002E9A20DE646B7DDD646B86DD636B64DFE8
:1006E00007D02E8A010E646F74DD010E646F7CDD0D
:1006F0001DB601D039D0938081B00CD02EBC09D06A
:1007000022C043F021C042F020C041F01FC040F0A1
:100710002E8C20D02EAC1ED040501F5C5F6E4150FE
:100720002058606F42502158616F43502258626FC9
:1007300062530AE1615308E16051020808E2FF0ACE
:1007400003E15F50E70803E21D881D8C02D01D887D
:100750001D9C2E9C938281B207D0320E656FA1DD65
:10076000938281B201D01D8AF29038EF00F0C290DE
:10077000C150C00B0F09C16E0F0EC16E070E926EF5
:10078000A30E936E000E946E94948B9494968B9615
:10079000949C8B9C949E8B9E939C8A9C93948A940D
:1007A00093968A9694988B98949A8B9A93988A9811
:1007B000F19E23EF04F0446A445002080BE3036AFD
:1007C0004450260FE96E000E0320EA6E020EEF6E13
:1007D000442AF2D793948A9493968A961D8E24EF96
:1007E00004F093988A9825EF04F0C10ED56EF60EAA
:1007F000D76E3C0ED66E850ECD6E26EF04F0000E41
:100800000409CA6EF90ECB6E94948B940C0EBD6ED7
:10081000949C8B9C949E8B9E939C8A8C9D82176A41
:10082000F2BE178EF29E76DD17BEF28E19EF04F03F
:10083000E6D727EF04F0F28A9D82F286C00EF2120C
:1008400028EF04F094D7B7D7CCD7CFD7F1D7F3D7C9
:10085000176AF2BE178EF29E640E656F22DD17BE18
:10086000F28E176AF2BE178EF29E010E646FB1DC33
:1008700017BEF28E176AF2BE178EF29E010E646FDB
:10088000B3DC17BEF28E020E446E176AF2BE178EEC
:10089000F29EFA0E656F05DD17BEF28E442EF5D777
:1008A000176AF2BE178EF29E646B93DC17BEF28E4F
:1008B000176AF2BE178EF29E646B96DC17BEF28E3C
:1008C0005AEF0AF01DB601D0C7D01DA867D01D98F9
:1008D0001DAC24D0010E1C6E1D92176AF2BE178E3D
:1008E000F29E646B81DC17BEF28E176AF2BE178E21
:1008F000F29E10DD17BEF28E176AF2BE178EF29EC0
:10090000010E646F12DD17BEF28E176AF2BE178EEB
:10091000F29E636B49DE17BEF28E40D01C50010A76
:1009200005E0030A0FE0010A19E024D0010E1C6E55
:100930001D82176AF2BE178EF29E646B55DC17BEDD
:10094000F28E23D0030E1C6E1D82176AF2BE178E24
:10095000F29E646B49DC17BEF28E17D0020E1C6E3D
:100960001D82176AF2BE178EF29E646B3DDC17BEC5
:10097000F28E0BD0010E1C6E1D92176AF2BE178EFE
:10098000F29E646B31DC17BEF28E176AF2BE178ED0
:10099000F29E1CC064F0C9DC17BEF28E1DAA5CD0AA
:1009A0001D9A1C50010A05E0030A19E0010A2BE018
:1009B0003ED01DA20AD0176AF2BE178EF29E010E1B
:1009C000636FF2DD17BEF28E09D0176AF2BE178E82
:1009D000F29E010E636FE8DD17BEF28E3DD01D82E0
:1009E000176AF2BE178EF29E646BF4EC00F017BE2D
:1009F000F28E176AF2BE178EF29E010E636FD4DD7F
:100A000017BEF28E29D01D82176AF2BE178EF29E93
:100A1000646BF4EC00F017BEF28E176AF2BE178E0C
:100A2000F29E010E636FC0DD17BEF28E15D0010E6F
:100A30001C6E1D92176AF2BE178EF29E646BF4EC68
:100A400000F017BEF28E176AF2BE178EF29E010EEC
:100A5000636FAADD17BEF28E67EF0AF01DA60CD0F9
:100A60001DAA0AD01D9A176AF2BE178EF29E010EB9
:100A7000636F9ADD17BEF28E9BEF0AF04A500708AB
:100A800002E0000E01D0010E016E64EF06F09398B3
:100A90008A98020E006E002EFED700D000009398B8
:100AA0008A88100E006E002EFED7000093988A9858
:100AB0001200016A026A006A036A595002E1585042
:100AC00018E0100E5A6ED890563657360036033658
:100AD0005950035C02E15850005C07E35850005E37
:100AE000D8A003065950035ED880013602365A2E2C
:100AF000EAD71200516A506A4F6A4E6A536A526AC4
:100B0000516A506A4F6A4E6A938A81BA1CD000D0EB
:100B100000D00000010E4E26D8B04F2AD8B4502A7B
:100B2000D8B4512A51520AE1505208E14F5074088A
:100B300009E2FF0A03E14E50300804E2000E016EA4
:100B4000026E3AD0E1D7CF6ACE6A516A506A4F6AD4
:100B50004E6A938A81AA1CD000D000D00000010EFA
:100B60004E26D8B04F2AD8B4502AD8B4512A515260
:100B70000AE1505208E14F50740809E2FF0A03E10C
:100B80004E50300804E2000E016E026E15D0E1D71F
:100B9000CE50546ECFCF55F055C057F054C056F0DC
:100BA000596A050E586E85DF02C053F001C052F03D
:100BB00052C001F053C002F0120069DF520E006E05
:100BC000002EFED700D0000095DF02C04BF001C020
:100BD0004AF04A5205E14B5203E1FF0E016E16D076
:100BE0004BC057F04AC056F0596A3A0E586E61DF52
:100BF00002C04DF001C04CF04D5203E14C50FE08D4
:100C000003E2FE0E016E02D04CC001F012004A5009
:100C1000050802E0000E01D0010E016E80EF06F023
:100C20004A5202E0000E01D0010E016EB9EF06F04B
:100C30002B50016E1200070E4B164B50030DF35054
:100C4000036AF2CF4CF0F29E5BEC00F0006E0900FC
:100C5000F5CF01F00900F5CF02F04CBEF28E036A29
:100C600012004AC01AF0176AF2BE178EF29E080EE2
:100C7000636F9ADC17BEF28E1200F1EC00F001C037
:100C800044F01C5001081DE24450070801E1312ADC
:100C9000442C01D003D04450030801E1322A3150E2
:100CA00000080FE2325001080CE2176AF2BE178EFC
:100CB000F29E030E646F95EC01F017BEF28E316A5E
:100CC000326A44C04AF0DAD6015214E0176AF2BE22
:100CD000178EF29EA00E646F3ADC17BEF28E176A72
:100CE000F2BE178EF29E960E656F51EC01F017BEA4
:100CF000F28EB5D062DF01C045F044C04AF087D71C
:100D0000015221E0453C01D012D0455005080FE3C7
:100D10001DB20DD02E86010E1B6E176AF2BE178E05
:100D2000F29E020E636F40DC17BEF28E98D0010E69
:100D30001B6E176AF2BE178EF29E050E636F34DCCF
:100D400017BEF28E8CD0453C01D010D0455005081E
:100D50000DE31DA20BD02E88176AF2BE178EF29EED
:100D6000060E636F21DC17BEF28E79D044C04AF0C4
:100D700057D7015259E0372A375004082BE2375031
:100D80000E0824E355DF01C04AF001C04BF053DFE9
:100D900003C048F002C047F001C046F0D89046308A
:100DA0004A6ED89047304B6E000E48B0010E4C6E24
:100DB000176AF2BE178EF29E4AC065F04BC066F00D
:100DC000676F64EC01F017BEF28E03D0010E4A6E1D
:100DD00048DF45D02DDF01C04AF001C04BF02BDFCA
:100DE00003C048F002C047F001C046F0050ED880AD
:100DF0003754140DF3CF49F04950465C4A6E4950C0
:100E0000475C4B6E000E48B0010E4C6E176AF2BE86
:100E1000178EF29E4AC065F04BC066F0676F64ECB7
:100E200001F017BEF28E1BD0376A44C04BF003DFCF
:100E300003C048F002C047F001C046F0000E48B0C1
:100E4000010E4A6E176AF2BE178EF29E46C065F01A
:100E500047C066F0676F64EC01F017BEF28E9BEF3F
:100E60000AF0ABDE01C044F0443C01D00ED0445047
:100E700002080BE3176AF2BE178EF29E030E636F31
:100E8000D4EC02F017BEF28E0DD0176AF2BE178EA8
:100E9000F29E500E656F666F010E676F64EC01F095
:100EA00017BEF28E9BEF0AF033501F5C446E345035
:100EB0002058456E35502158466E36502258476EA0
:100EC00047520AE1465208E14550060814E2FF0A7B
:100ED00003E14450CF080FE21D821D84256A010EF4
:100EE0001B6E176AF2BE178EF29E040E636FD4EC6F
:100EF00002F017BEF28E9BEF0AF0586A596A010E93
:100F00005A6EDA6AD96A5D6A500E5C6EEA6A540EED
:100F1000E96E5DC0E2FF5CC0E1FF5AC05BF0D890B3
:100F2000E550EE02F3505822F45059225B2EF7D7C9
:100F300058C0DEFF59C058F0596AD8B0592A5C2A07
:100F4000D8B45D2A5A2A5A500508E0E117EF08F094
:100F5000D8B203D0EA6A580EE96E006A016A026AE2
:100F6000036A586A596A5A6A5B6A57505610551094
:100F700054102CE0200E5C6ED8905036513652360C
:100F80005336583659365A365B3657505B5C08E153
:100F900056505A5C05E15550595C02E15450585C7A
:100FA0000FE35450585E5550D8A0553C595E5650EA
:100FB000D8A0563C5A5E5750D8A0573C5B5ED880AC
:100FC00000360136023603365C2ED6D758C0EFFF06
:100FD00059C0ECFF5AC0ECFF5BC0ECFF120057DDBC
:100FE000520E006E002EFED700D0000083DD02C03E
:100FF00047F001C046F0465206E1475204E1FF0EB9
:10100000016E026E37D04F6A4E6A47C04DF046C03F
:101010004CF04FC053F04EC052F047C051F046C0A4
:1010200050F0576A566A556A0A0E546E66D703C066
:101030004FF002C04EF001C04DF000C04CF0D8920D
:1010400003C053F002C052F001C051F000C050F094
:10105000576A566A556A3A0E546E7ADF03C04BF0EF
:1010600002C04AF001C049F000C048F048C001F099
:1010700049C002F03DEF08F0B2D702C045F001C010
:1010800044F03E5206E13F5204E145C03FF044C007
:101090003EF0443C03D0453C01D015D03F50455C68
:1010A00012E303E144503E5C0EE23E50445C006EAD
:1010B0003F504558036E00503C2603503D2245C02A
:1010C0003FF044C03EF03D5203E13C50F9080CE2D1
:1010D0003F6A3E6A176AF2BE178EF29E050E636F74
:1010E000D4EC02F017BEF28E9BEF0AF0F1EC00F0A8
:1010F00001C044F038501F5C456E39502058466E90
:101100003A502158476E3B502258486E485208E1E9
:10111000475206E1465204E14550C70801E31CD09E
:101120004450020B0AE0176AF2BE178EF29E010EBF
:10113000636FD4EC02F017BEF28E48520AE14752B8
:1011400008E14650060808E2FF0A03E14550D008CE
:1011500003E2010E4A6E85DD9BEF0AF033501F5CFF
:10116000446E34502058456E35502158466E3650E6
:101170002258476E47520AE1465208E14550060898
:1011800022E2FF0A03E14450CF081DE2176AF2BED3
:10119000178EF29E646BE9EC00F017BEF28E176AB0
:1011A000F2BE178EF29E646BF4EC00F017BEF28E66
:1011B0001D92176AF2BE178EF29E070E636FD4EC73
:1011C00002F017BEF28E9BEF0AF0939C8A9C176A7E
:1011D000F2BE178EF29E8AEC01F017BEF28E00EF7F
:1011E00009F0F1EC00F001C044F044522AE1176A22
:1011F000F2BE178EF29E8AEC01F017BEF28EE5D792
:10120000176AF2BE178EF29E646BE9EC00F017BE0F
:10121000F28E176AF2BE178EF29E646BF4EC00F049
:1012200017BEF28E040E456E176AF2BE178EF29E3E
:10123000FA0E656F51EC01F017BEF28E452EF4D711
:10124000FF009BEF0AF0D882EA6A440EE96E22C0E2
:1012500053F021C052F020C051F01FC050F0576A27
:10126000566A010E556EF40E546E72DE47C04BF096
:1012700046C04AF045C049F044C048F04B5212E124
:101280004A5210E149520EE14850F9080BE3176A3F
:10129000F2BE178EF29E010E646FE9EC00F017BEED
:1012A000F28E09D0176AF2BE178EF29E646BE9ECDB
:1012B00000F017BEF28E1DA612D01DAA10D01D9AE6
:1012C0001E2A1E50030801E20AD0176AF2BE178ECA
:1012D000F29E090E636FD4EC02F017BEF28E9BEF04
:1012E0000AF0F2CF45F0F29EAA6AA96AA69CA69ED1
:1012F000A680A85045BEF28E1C6EF2CF45F0F29E3D
:10130000AA6A020EA96EA69CA69EA680A85045BEFB
:10131000F28E1B6EF2CF45F0F29EAA6A030EA96E02
:10132000A69CA69EA680A85045BEF28E446EF2CF23
:1013300045F0F29EAA6A040EA96EA69CA69EA680FF
:10134000A85045BEF28E316EF2CF45F0F29EAA6AE9
:10135000050EA96EA69CA69EA680A85045BEF28E3C
:10136000326E1D92442C01D01D821C50010A05E0F2
:10137000030A1AE0010A2DE041D01D92176AF2BE5D
:10138000178EF29E646BF4EC00F017BEF28E316A99
:10139000326A176AF2BE178EF29E010E636FD4ECAA
:1013A00002F017BEF28E40D01D82176AF2BE178E71
:1013B000F29E646BF4EC00F017BEF28E176AF2BE78
:1013C000178EF29E010E636FD4EC02F017BEF28E00
:1013D0002BD01D82176AF2BE178EF29E646BF4EC5E
:1013E00000F017BEF28E176AF2BE178EF29E010E43
:1013F000636FD4EC02F017BEF28E16D01D92176AFE
:10140000F2BE178EF29E646BF4EC00F017BEF28E03
:10141000316A326A176AF2BE178EF29E010E636F4E
:10142000D4EC02F017BEF28E9BEF0AF0F86AD09E61
:10143000078E296A020E2A6E2B6E1D9E2D6A2C6A5B
:101440002E902E922E942F6A306A186A196A1A6AA0
:101450001B6A010E1C6E1D901D921E6A316A326A53
:10146000366A356A346A336A376A3B6A3A6A396A75
:10147000386A3D6A3C6A3F6A3E6A2E962E98226A16
:10148000216A206A1F6A246A236A1D94256A2E9A9B
:101490001D961D981D9A1D9C436A426A416A406AC6
:1014A0002E9CC150C00B0F09C16E266A276A286A9C
:1014B00022EF04F01D962E9A186A176AF2BE178E54
:1014C000F29E2FEC02F017BEF28E62EF04F018507D
:1014D00013E0010A14E0030A15E0010A15E0070A07
:1014E00015E0010A15E0030A15E0010A15E00F0AEC
:1014F00015E0010A15E016D02EEF05F01CD03DEFE7
:1015000006F019D0AED417D0CFD415D0B5D513D09E
:10151000EDD511D023D60FD064D60DD094D60BD0F4
:10152000E0D609D0176AF2BE178EF29E636BD4EC38
:1015300002F017BEF28E176AF2BE178EF29E0A0EE6
:0E154000656F51EC01F017BEF28EBFD70300AD
:020000040030CA
:0E00000000C2191E0084B1003FC03FE03F4027
:00000001FF
;PIC18F2685
;CRC=A26B  CREATED="02-Apr-26 11:34"
