:04000000ACEF00F071
:08000800046ED8CF05F0E0CF33
:1000100006F00001E9CF0CF0EACF07F0E1CF08F0DD
:10002000E2CF09F0D9CF0AF0DACF0BF0F3CF12F01C
:10003000F4CF13F0FACF14F0FBCF15F000C00EF0A0
:1000400001C00FF002C010F003C011F0F2AA2CEFB3
:1000500000F0F2B455EF00F0F2A632EF00F0F2B08B
:1000600092EF00F00EC000F00FC001F010C002F0DF
:1000700011C003F00CC0E9FF07C0EAFF078E08C0FB
:10008000E1FF09C0E2FF0AC0D9FF0BC0DAFF12C0CE
:10009000F3FF13C0F4FF14C0FAFF15C0FBFF0450B8
:1000A00006C0E0FF05C0D8FF1000F00ED76E600E4E
:1000B000D66E17A034D092841B9080B41B80928699
:1000C0001B9280B61B8292881B9480B81B841B965F
:1000D0001BB004D01BB202D01BA401D01B861BA6F0
:1000E00018D0182AD8B4192A195203E11850F9085F
:1000F0000FE2196A186A177217B202D08A9401D0F7
:100100008A84939417A202D08A9601D08A86939605
:1001100006D0196A186A93948A9493968A96F294F0
:1001200032EF00F0936881CF1BF01784F29032EF2A
:1001300000F0EA6A1A0EE96EEF500DE0060E016E4D
:10014000006A002EFED7012EFBD77B0E006E002E1C
:10015000FED7EF2EF3D71200F86AD09E078E1790C5
:100160001792196A186A1794C150C00B0F09C16E13
:10017000C290C150C00B0F09C16E1F0E926E830E4C
:10018000936EF19E93948A9493968A96820ED56E7E
:10019000F00ED76E600ED66EF28AF286C00EF212A4
:1001A00017A40ED0320E1A6EC4DF938E81BE07D014
:1001B000177017B004D093948A9493968A961794E4
:0A01C0000A0E1A6EB6DFECD703003A
:020000040030CA
:0E00000000C21E1E0086B1003FC03FE03F4020
:00000001FF
;PIC18F2685
;CRC=4183  CREATED="02-Apr-26 16:31"
