:04000000CAEF00F053
:08000800046ED8CF05F0E0CF33
:1000100006F00001E9CF0CF0EACF07F0E1CF08F0DD
:10002000E2CF09F0D9CF0AF0DACF0BF0F3CF12F01C
:10003000F4CF13F0FACF14F0FBCF15F000C00EF0A0
:1000400001C00FF002C010F003C011F09DA22CEF10
:1000500000F09EB24FEF00F00EC000F00FC001F0B4
:1000600010C002F011C003F00CC0E9FF07C0EAFFA6
:10007000078E08C0E1FF09C0E2FF0AC0D9FF0BC02C
:10008000DAFF12C0F3FF13C0F4FF14C0FAFF15C06B
:10009000FBFF045006C0E0FF05C0D8FF100017505A
:1000A000195C02E38B9401D08B8494941850195CF2
:1000B00002E38B9201D08B829492192A1950630823
:1000C00001E2196A9E922CEF00F0000E0509CA6E3B
:1000D000310ECB6E176A186A94988B989D82DAEF6E
:1000E00000F094988B8894908B8094968B96949A39
:1000F0008B8A949C8B9C1AC017F01AC018F0DFEF03
:1001000000F0EA6A1B0EE96EEF500DE0060E016E7C
:10011000006A002EFED7012EFBD77B0E006E002E4C
:10012000FED7EF2EF3D7120094988B8894908B9083
:1001300094968B86949A8B9A949C8B8C1AC017F009
:100140001AC018F0E9EF00F094988B8894908B9087
:1001500094968B86949A8B8A949C8B9C1AC017F0E9
:100160001AC018F0F3EF00F094988B8894908B806D
:1001700094968B96949A8B9A949C8B8C1AC017F0B9
:100180001AC018F0FDEF00F094988B98176A186A5F
:1001900005EF01F0F86AD09E078E176A186A196A8F
:1001A000C150C00B0F09C16EC290C150C00B0F09E6
:1001B000C16E8BD7C00EF212500E1A6E92D7080E77
:1001C0001A6EFA0E1B6E9DDF1A2EFBD7500E1A6E9A
:1001D000ABD7080E1A6EFA0E1B6E93DF1A2EFBD7E2
:1001E0003C0E1A6EB1D7080E1A6EFA0E1B6E89DF1E
:1001F0001A2EFBD73C0E1A6EB7D7080E1A6EFA0EDF
:100200001B6E7FDF1A2EFBD7BFD7080E1A6EFA0EB1
:0C0210001B6E77DF1A2EFBD7CFD7030040
:020000040030CA
:0E00000000C21E1E0086B1003FC03FE03F4020
:00000001FF
;PIC18F2685
;CRC=CD2E  CREATED="02-Apr-26 16:41"
